{
    "contractName": "MerkleTimi",
    "abi": [
        {
            "inputs": [
                {
                    "internalType": "string",
                    "name": "_name",
                    "type": "string"
                },
                {
                    "internalType": "string",
                    "name": "_symbol",
                    "type": "string"
                }
            ],
            "stateMutability": "nonpayable",
            "type": "constructor"
        },
        {
            "anonymous": false,
            "inputs": [
                {
                    "indexed": true,
                    "internalType": "address",
                    "name": "owner",
                    "type": "address"
                },
                {
                    "indexed": true,
                    "internalType": "address",
                    "name": "spender",
                    "type": "address"
                },
                {
                    "indexed": false,
                    "internalType": "uint256",
                    "name": "value",
                    "type": "uint256"
                }
            ],
            "name": "Approval",
            "type": "event"
        },
        {
            "anonymous": false,
            "inputs": [
                {
                    "indexed": true,
                    "internalType": "address",
                    "name": "from",
                    "type": "address"
                },
                {
                    "indexed": true,
                    "internalType": "address",
                    "name": "to",
                    "type": "address"
                },
                {
                    "indexed": false,
                    "internalType": "uint256",
                    "name": "value",
                    "type": "uint256"
                }
            ],
            "name": "Transfer",
            "type": "event"
        },
        {
            "inputs": [
                {
                    "internalType": "address",
                    "name": "owner",
                    "type": "address"
                },
                {
                    "internalType": "address",
                    "name": "spender",
                    "type": "address"
                }
            ],
            "name": "allowance",
            "outputs": [
                {
                    "internalType": "uint256",
                    "name": "",
                    "type": "uint256"
                }
            ],
            "stateMutability": "view",
            "type": "function"
        },
        {
            "inputs": [
                {
                    "internalType": "address",
                    "name": "spender",
                    "type": "address"
                },
                {
                    "internalType": "uint256",
                    "name": "amount",
                    "type": "uint256"
                }
            ],
            "name": "approve",
            "outputs": [
                {
                    "internalType": "bool",
                    "name": "",
                    "type": "bool"
                }
            ],
            "stateMutability": "nonpayable",
            "type": "function"
        },
        {
            "inputs": [
                {
                    "internalType": "address",
                    "name": "account",
                    "type": "address"
                }
            ],
            "name": "balanceOf",
            "outputs": [
                {
                    "internalType": "uint256",
                    "name": "",
                    "type": "uint256"
                }
            ],
            "stateMutability": "view",
            "type": "function"
        },
        {
            "inputs": [
                {
                    "internalType": "uint256",
                    "name": "_amount",
                    "type": "uint256"
                },
                {
                    "internalType": "bytes32[]",
                    "name": "_proof",
                    "type": "bytes32[]"
                }
            ],
            "name": "claimAirdrop",
            "outputs": [],
            "stateMutability": "nonpayable",
            "type": "function"
        },
        {
            "inputs": [],
            "name": "decimals",
            "outputs": [
                {
                    "internalType": "uint8",
                    "name": "",
                    "type": "uint8"
                }
            ],
            "stateMutability": "view",
            "type": "function"
        },
        {
            "inputs": [
                {
                    "internalType": "address",
                    "name": "spender",
                    "type": "address"
                },
                {
                    "internalType": "uint256",
                    "name": "subtractedValue",
                    "type": "uint256"
                }
            ],
            "name": "decreaseAllowance",
            "outputs": [
                {
                    "internalType": "bool",
                    "name": "",
                    "type": "bool"
                }
            ],
            "stateMutability": "nonpayable",
            "type": "function"
        },
        {
            "inputs": [
                {
                    "internalType": "address",
                    "name": "spender",
                    "type": "address"
                },
                {
                    "internalType": "uint256",
                    "name": "addedValue",
                    "type": "uint256"
                }
            ],
            "name": "increaseAllowance",
            "outputs": [
                {
                    "internalType": "bool",
                    "name": "",
                    "type": "bool"
                }
            ],
            "stateMutability": "nonpayable",
            "type": "function"
        },
        {
            "inputs": [],
            "name": "name",
            "outputs": [
                {
                    "internalType": "string",
                    "name": "",
                    "type": "string"
                }
            ],
            "stateMutability": "view",
            "type": "function"
        },
        {
            "inputs": [],
            "name": "owner",
            "outputs": [
                {
                    "internalType": "address",
                    "name": "",
                    "type": "address"
                }
            ],
            "stateMutability": "view",
            "type": "function"
        },
        {
            "inputs": [
                {
                    "internalType": "bytes32",
                    "name": "_root",
                    "type": "bytes32"
                }
            ],
            "name": "setMerkleRoot",
            "outputs": [],
            "stateMutability": "nonpayable",
            "type": "function"
        },
        {
            "inputs": [],
            "name": "symbol",
            "outputs": [
                {
                    "internalType": "string",
                    "name": "",
                    "type": "string"
                }
            ],
            "stateMutability": "view",
            "type": "function"
        },
        {
            "inputs": [],
            "name": "totalSupply",
            "outputs": [
                {
                    "internalType": "uint256",
                    "name": "",
                    "type": "uint256"
                }
            ],
            "stateMutability": "view",
            "type": "function"
        },
        {
            "inputs": [
                {
                    "internalType": "address",
                    "name": "to",
                    "type": "address"
                },
                {
                    "internalType": "uint256",
                    "name": "amount",
                    "type": "uint256"
                }
            ],
            "name": "transfer",
            "outputs": [
                {
                    "internalType": "bool",
                    "name": "",
                    "type": "bool"
                }
            ],
            "stateMutability": "nonpayable",
            "type": "function"
        },
        {
            "inputs": [
                {
                    "internalType": "address",
                    "name": "from",
                    "type": "address"
                },
                {
                    "internalType": "address",
                    "name": "to",
                    "type": "address"
                },
                {
                    "internalType": "uint256",
                    "name": "amount",
                    "type": "uint256"
                }
            ],
            "name": "transferFrom",
            "outputs": [
                {
                    "internalType": "bool",
                    "name": "",
                    "type": "bool"
                }
            ],
            "stateMutability": "nonpayable",
            "type": "function"
        }
    ],
    "bytecode": "60806040523480156200001157600080fd5b5060405162000fe138038062000fe1833981016040819052620000349162000217565b818160036200004483826200030f565b5060046200005382826200030f565b5050600580546001600160a01b03191633179055506200007f306a52b7d2dcc80cd2e400000062000087565b505062000403565b6001600160a01b038216620000e25760405162461bcd60e51b815260206004820152601f60248201527f45524332303a206d696e7420746f20746865207a65726f206164647265737300604482015260640160405180910390fd5b8060026000828254620000f69190620003db565b90915550506001600160a01b038216600081815260208181526040808320805486019055518481527fddf252ad1be2c89b69c2b068fc378daa952ba7f163c4a11628f55a4df523b3ef910160405180910390a35050565b505050565b634e487b7160e01b600052604160045260246000fd5b600082601f8301126200017a57600080fd5b81516001600160401b038082111562000197576200019762000152565b604051601f8301601f19908116603f01168101908282118183101715620001c257620001c262000152565b81604052838152602092508683858801011115620001df57600080fd5b600091505b83821015620002035785820183015181830184015290820190620001e4565b600093810190920192909252949350505050565b600080604083850312156200022b57600080fd5b82516001600160401b03808211156200024357600080fd5b620002518683870162000168565b935060208501519150808211156200026857600080fd5b50620002778582860162000168565b9150509250929050565b600181811c908216806200029657607f821691505b602082108103620002b757634e487b7160e01b600052602260045260246000fd5b50919050565b601f8211156200014d57600081815260208120601f850160051c81016020861015620002e65750805b601f850160051c820191505b818110156200030757828155600101620002f2565b505050505050565b81516001600160401b038111156200032b576200032b62000152565b62000343816200033c845462000281565b84620002bd565b602080601f8311600181146200037b5760008415620003625750858301515b600019600386901b1c1916600185901b17855562000307565b600085815260208120601f198616915b82811015620003ac578886015182559484019460019091019084016200038b565b5085821015620003cb5787850151600019600388901b60f8161c191681555b5050505050600190811b01905550565b80820180821115620003fd57634e487b7160e01b600052601160045260246000fd5b92915050565b610bce80620004136000396000f3fe608060405234801561001057600080fd5b50600436106100ea5760003560e01c806370a082311161008c57806395d89b411161006657806395d89b41146101f3578063a457c2d7146101fb578063a9059cbb1461020e578063dd62ed3e1461022157600080fd5b806370a082311461018c5780637cb64759146101b55780638da5cb5b146101c857600080fd5b806318160ddd116100c857806318160ddd1461014557806323b872dd14610157578063313ce5671461016a578063395093511461017957600080fd5b806306fdde03146100ef578063095ea7b31461010d5780630bcae1ac14610130575b600080fd5b6100f7610234565b60405161010491906108ef565b60405180910390f35b61012061011b366004610959565b6102c6565b6040519015158152602001610104565b61014361013e366004610999565b6102e0565b005b6002545b604051908152602001610104565b610120610165366004610a63565b6102fa565b60405160128152602001610104565b610120610187366004610959565b61031e565b61014961019a366004610a9f565b6001600160a01b031660009081526020819052604090205490565b6101436101c3366004610aba565b610340565b6005546101db906001600160a01b031681565b6040516001600160a01b039091168152602001610104565b6100f761034d565b610120610209366004610959565b61035c565b61012061021c366004610959565b6103dc565b61014961022f366004610ad3565b6103ea565b60606003805461024390610b06565b80601f016020809104026020016040519081016040528092919081815260200182805461026f90610b06565b80156102bc5780601f10610291576101008083540402835291602001916102bc565b820191906000526020600020905b81548152906001019060200180831161029f57829003601f168201915b5050505050905090565b6000336102d4818585610415565b60019150505b92915050565b6102eb338383610539565b6102f63033846105dc565b5050565b600033610308858285610780565b6103138585856105dc565b506001949350505050565b6000336102d481858561033183836103ea565b61033b9190610b56565b610415565b6103486107f4565b600655565b60606004805461024390610b06565b6000338161036a82866103ea565b9050838110156103cf5760405162461bcd60e51b815260206004820152602560248201527f45524332303a2064656372656173656420616c6c6f77616e63652062656c6f77604482015264207a65726f60d81b60648201526084015b60405180910390fd5b6103138286868403610415565b6000336102d48185856105dc565b6001600160a01b03918216600090815260016020908152604080832093909416825291909152205490565b6001600160a01b0383166104775760405162461bcd60e51b8152602060048201526024808201527f45524332303a20617070726f76652066726f6d20746865207a65726f206164646044820152637265737360e01b60648201526084016103c6565b6001600160a01b0382166104d85760405162461bcd60e51b815260206004820152602260248201527f45524332303a20617070726f766520746f20746865207a65726f206164647265604482015261737360f01b60648201526084016103c6565b6001600160a01b0383811660008181526001602090815260408083209487168084529482529182902085905590518481527f8c5be1e5ebec7d5bd14f71427d1e84f3dd0314c0f7b2291e5b200ac8c7c3b925910160405180910390a3505050565b604080516001600160a01b038516602082015290810183905260009060600160408051601f198184030181528282528051602091820120908301520160405160208183030381529060405280519060200120905061059a826006548361085a565b6105d65760405162461bcd60e51b815260206004820152600d60248201526c24b73b30b634b210283937b7b360991b60448201526064016103c6565b50505050565b6001600160a01b0383166106405760405162461bcd60e51b815260206004820152602560248201527f45524332303a207472616e736665722066726f6d20746865207a65726f206164604482015264647265737360d81b60648201526084016103c6565b6001600160a01b0382166106a25760405162461bcd60e51b815260206004820152602360248201527f45524332303a207472616e7366657220746f20746865207a65726f206164647260448201526265737360e81b60648201526084016103c6565b6001600160a01b0383166000908152602081905260409020548181101561071a5760405162461bcd60e51b815260206004820152602660248201527f45524332303a207472616e7366657220616d6f756e7420657863656564732062604482015265616c616e636560d01b60648201526084016103c6565b6001600160a01b03848116600081815260208181526040808320878703905593871680835291849020805487019055925185815290927fddf252ad1be2c89b69c2b068fc378daa952ba7f163c4a11628f55a4df523b3ef910160405180910390a36105d6565b600061078c84846103ea565b905060001981146105d657818110156107e75760405162461bcd60e51b815260206004820152601d60248201527f45524332303a20696e73756666696369656e7420616c6c6f77616e636500000060448201526064016103c6565b6105d68484848403610415565b6005546001600160a01b031633146108585760405162461bcd60e51b815260206004820152602160248201527f4f6e6c79206f776e65722063616e2063616c6c20746869732066756e6374696f6044820152603760f91b60648201526084016103c6565b565b6000826108678584610870565b14949350505050565b600081815b84518110156108b5576108a18286838151811061089457610894610b69565b60200260200101516108bd565b9150806108ad81610b7f565b915050610875565b509392505050565b60008183106108d95760008281526020849052604090206108e8565b60008381526020839052604090205b9392505050565b600060208083528351808285015260005b8181101561091c57858101830151858201604001528201610900565b506000604082860101526040601f19601f8301168501019250505092915050565b80356001600160a01b038116811461095457600080fd5b919050565b6000806040838503121561096c57600080fd5b6109758361093d565b946020939093013593505050565b634e487b7160e01b600052604160045260246000fd5b600080604083850312156109ac57600080fd5b8235915060208084013567ffffffffffffffff808211156109cc57600080fd5b818601915086601f8301126109e057600080fd5b8135818111156109f2576109f2610983565b8060051b604051601f19603f83011681018181108582111715610a1757610a17610983565b604052918252848201925083810185019189831115610a3557600080fd5b938501935b82851015610a5357843584529385019392850192610a3a565b8096505050505050509250929050565b600080600060608486031215610a7857600080fd5b610a818461093d565b9250610a8f6020850161093d565b9150604084013590509250925092565b600060208284031215610ab157600080fd5b6108e88261093d565b600060208284031215610acc57600080fd5b5035919050565b60008060408385031215610ae657600080fd5b610aef8361093d565b9150610afd6020840161093d565b90509250929050565b600181811c90821680610b1a57607f821691505b602082108103610b3a57634e487b7160e01b600052602260045260246000fd5b50919050565b634e487b7160e01b600052601160045260246000fd5b808201808211156102da576102da610b40565b634e487b7160e01b600052603260045260246000fd5b600060018201610b9157610b91610b40565b506001019056fea264697066735822122091676ff80e913da8ddd447070784ce5b2da3859a12682ac62ba28c1e1faa671d64736f6c63430008130033",
    "sourcePath": "/home/francis/Desktop/nonso/Web3Bridge/Solidity/MerkleAirdrop/contracts/MerkleTimi.sol",
    "compiler": {
        "name": "solc",
        "version": "0.8.19+commit.7dd6d404"
    },
    "functionHashes": {
        "allowance(address,address)": "dd62ed3e",
        "approve(address,uint256)": "095ea7b3",
        "balanceOf(address)": "70a08231",
        "claimAirdrop(uint256,bytes32[])": "0bcae1ac",
        "decimals()": "313ce567",
        "decreaseAllowance(address,uint256)": "a457c2d7",
        "increaseAllowance(address,uint256)": "39509351",
        "name()": "06fdde03",
        "owner()": "8da5cb5b",
        "setMerkleRoot(bytes32)": "7cb64759",
        "symbol()": "95d89b41",
        "totalSupply()": "18160ddd",
        "transfer(address,uint256)": "a9059cbb",
        "transferFrom(address,address,uint256)": "23b872dd"
    },
    "gasEstimates": {
        "creation": {
            "codeDepositCost": "604400",
            "executionCost": "infinite",
            "totalCost": "infinite"
        },
        "external": {
            "allowance(address,address)": "infinite",
            "approve(address,uint256)": "24651",
            "balanceOf(address)": "2563",
            "claimAirdrop(uint256,bytes32[])": "infinite",
            "decimals()": "244",
            "decreaseAllowance(address,uint256)": "26994",
            "increaseAllowance(address,uint256)": "infinite",
            "name()": "infinite",
            "owner()": "2404",
            "setMerkleRoot(bytes32)": "24533",
            "symbol()": "infinite",
            "totalSupply()": "2304",
            "transfer(address,uint256)": "51116",
            "transferFrom(address,address,uint256)": "infinite"
        },
        "internal": {
            "onlyOwner()": "infinite",
            "verifyProof(address,uint256,bytes32[] memory)": "infinite"
        }
    }
}